:100000000C9446000C9465000C9465000C946500FB
:100010000C9465000C9465000C9465000C946500CC
:100020000C9465000C9465000C9465000C946500BC
:100030000C9465000C9465000C9465000C946500AC
:100040000C9465000C9465000C9465000C9465009C
:100050000C9465000C9465000C9465000C9465008C
:100060000C9465000C9465000C9465000C9465007C
:100070000C9465000C9465000C9465000C9465006C
:100080000C9465000C9465000C94650011241FBE4F
:10009000CFEFD0E4DEBFCDBF11E0A0E0B1E0E0E003
:1000A000F6E000E00BBF02C007900D92A233B1074B
:1000B000D9F711E0A2E3B1E001C01D92A334B1076A
:1000C000E1F70E9466020C94FE020C9400004423A7
:1000D00049F021E030E002C0220F331F6A95E2F7B9
:1000E000822B089521E030E002C0220F331F6A9571
:1000F000E2F720958223089521E030E002C0220F2C
:10010000331F6A95E2F78223089540E064E08FEFA1
:100110000E94670082B9000080B160E080950E9473
:100120007C00811180C080B161E080950E947C00DC
:1001300081117BC080B162E080950E947C008111BA
:1001400076C080B163E080950E947C00811171C00F
:1001500040E065E08FEF0E94670082B9000080B147
:1001600060E080950E947C00811165C080B161E0F3
:1001700080950E947C00811160C080B162E0809512
:100180000E947C0081115BC080B163E080950E9479
:100190007C00811156C040E066E08FEF0E9467004E
:1001A00082B9000080B160E080950E947C008111DE
:1001B0004AC080B161E080950E947C00811145C0F9
:1001C00080B162E080950E947C00811140C080B1C6
:1001D00063E080950E947C0081113BC040E067E0B5
:1001E0008FEF0E94670082B9000080B160E08095C7
:1001F0000E947C0081112FC080B161E080950E9437
:100200007C0081112AC080B162E080950E947C0050
:10021000811125C080B163E080950E947C00882315
:10022000F9F084E4089581E3089584E3089587E371
:1002300008958AE2089582E3089585E3089588E3A6
:10024000089580E3089583E3089586E3089589E39C
:10025000089583E2089581E4089582E4089583E493
:10026000089540E050E00CC000002F5F3F4F02C0F7
:1002700020E030E0273063E03607B4F34F5F5F4F94
:1002800048175907ACF308955E9888B95F9A000043
:100290005F9882E090E00E943101089581E00E9421
:1002A00044010895813120F481580E944401089549
:1002B00081550E944401089584E690E00E94310136
:1002C00088E30E94440186E00E9444018FE00E947E
:1002D000440181E00E9444018AE090E00E943101E3
:1002E00008955E9A88B95F9A00005F9881E090E077
:1002F0000E9431010895EF92FF920F931F93CF93C5
:10030000DF93182FEB010E944E010EC001E0010F98
:10031000812F0E9452017E018FEFE81AF80A88812E
:100320000E947101102FE70188818111EFCFDF91C9
:10033000CF911F910F91FF90EF900895CF93DF938E
:10034000EC01009761F581E0809300011FC00E94DD
:10035000520180910101E0910001F0E0E80FF11DF0
:10036000EC5FFE4F80810E947101909100018091AD
:100370000101292F30E0280F311D2D32310519F4EC
:1003800081E0809301019F5F9093000180910001C3
:100390008131E8F2809101018F5F80930101CE01EC
:1003A000DF91CF9108950F931F93CF93DF93B62FD3
:1003B000A72FF82FE92F022F132FD42FC52F04C0FA
:1003C000062F172FD82FC92F6B2F7A2F8F2F9E2FE5
:1003D000202F312F4D2F5C2F0E94DC02B02FA12F38
:1003E000FD2FEC2F611571058105910549F7602FEF
:1003F000712F8D2F9C2FDF91CF911F910F91089519
:100400008BE0809381008DE790E09093890080934A
:10041000880082E080936F00109285001092840023
:100420008091020190910301A0910401B091050116
:100430008093330190933401A0933501B09336013A
:100440008FB780688FBF089510928100089581E072
:100450008093370108958091330190913401A091E8
:100460003501B09136010197A109B109809333019B
:1004700090933401A0933501B0933601892B8A2BD8
:100480008B2B91F40E94270280910201909103012D
:10049000A0910401B0910501809333019093340140
:1004A000A0933501B09336010895609302017093D3
:1004B00003018093040190930501609333017093CD
:1004C000340180933501909336010895CF93DF93E3
:1004D00000D0CDB7DEB780EF81B98FE082B98FEF62
:1004E00084B915B887B918B88AB91BB8E8E3F1E040
:1004F000FA83E98310828AEF90E0A0E0B0E0818384
:100500009283A383B48385839683A783B0878EE980
:1005100091E09287818761E070E080E090E00E9446
:1005200055020E9400020E945C010E944E01E12CD3
:10053000F12C38C0F701EE0FFF1FEC0FFD1F0181FA
:100540001281D80115964D915D916D917C9118970E
:1005500011968D919D910D90BC91A02D4817590732
:100560006A077B0780F0D8011996ED91FC911A97E4
:100570008C91992787FD90950995F80180831582C4
:10058000168217821086F80185819681A781B08531
:100590000196A11DB11D85839683A783B087FFEFC8
:1005A000EF1AFF0AE114F10429F280913701882340
:1005B000E1F310923701BBCFA1E21A2EAA1BBB1B9D
:1005C000FD010DC0AA1FBB1FEE1FFF1FA217B3071F
:1005D000E407F50720F0A21BB30BE40BF50B661F35
:1005E000771F881F991F1A9469F7609570958095F9
:1005F00090959B01AC01BD01CF010895F894FFCF08
:1006000001010100000020202020435331323042FC
:10061000206973204C6567656E642E2E2E776169A4
:100620007420666F72206974204441525921202041
:02063000202088
:00000001FF
