:100000000C9446000C9465000C9465000C946500FB
:100010000C9465000C9465000C9465000C946500CC
:100020000C9465000C9465000C9465000C946500BC
:100030000C9465000C9465000C9465000C946500AC
:100040000C9465000C9465000C9465000C9465009C
:100050000C9465000C9465000C9465000C9465008C
:100060000C9465000C9465000C9465000C9465007C
:100070000C9465000C9465000C9465000C9465006C
:100080000C9465000C9465000C94650011241FBE4F
:10009000CFEFD0E4DEBFCDBF11E0A0E0B1E0E2EBF6
:1000A000F5E000E00BBF02C007900D92A633B10748
:1000B000D9F711E0A6E3B1E001C01D92A934B10760
:1000C000E1F70E9482020C94D7020C9400004423B2
:1000D00049F021E030E002C0220F331F6A95E2F7B9
:1000E000822B089521E030E002C0220F331F6A9571
:1000F000E2F720958223089521E030E002C0220F2C
:10010000331F6A95E2F78223089540E064E08FEFA1
:100110000E94670082B9000080B160E080950E9473
:100120007C00811180C080B161E080950E947C00DC
:1001300081117BC080B162E080950E947C008111BA
:1001400076C080B163E080950E947C00811171C00F
:1001500040E065E08FEF0E94670082B9000080B147
:1001600060E080950E947C00811165C080B161E0F3
:1001700080950E947C00811160C080B162E0809512
:100180000E947C0081115BC080B163E080950E9479
:100190007C00811156C040E066E08FEF0E9467004E
:1001A00082B9000080B160E080950E947C008111DE
:1001B0004AC080B161E080950E947C00811145C0F9
:1001C00080B162E080950E947C00811140C080B1C6
:1001D00063E080950E947C0081113BC040E067E0B5
:1001E0008FEF0E94670082B9000080B160E08095C7
:1001F0000E947C0081112FC080B161E080950E9437
:100200007C0081112AC080B162E080950E947C0050
:10021000811125C080B163E080950E947C00882315
:10022000F9F084E4089581E3089584E3089587E371
:1002300008958AE2089582E3089585E3089588E3A6
:10024000089580E3089583E3089586E3089589E39C
:10025000089583E2089581E4089582E4089583E493
:10026000089540E050E00CC000002F5F3F4F02C0F7
:1002700020E030E0273063E03607B4F34F5F5F4F94
:1002800048175907ACF308955E9888B95F9A000043
:100290005F9882E090E00E943101089581E00E9421
:1002A00044010895813120F481580E944401089549
:1002B00081550E944401089584E690E00E94310136
:1002C00088E30E94440186E00E9444018FE00E947E
:1002D000440181E00E9444018AE090E00E943101E3
:1002E00008955E9A88B95F9A00005F9881E090E077
:1002F0000E9431010895EF92FF920F931F93CF93C5
:10030000DF93182FEB010E944E010EC001E0010F98
:10031000812F0E9452017E018FEFE81AF80A88812E
:100320000E947101102FE70188818111EFCFDF91C9
:10033000CF911F910F91FF90EF9008950F931F930E
:10034000CF93DF938C018130910541F0823091058C
:1003500011F0009771F401E010E010C080913B01B2
:1003600090E00F962091270130E08217930724F444
:1003700005C000E010E002C002E010E0013011050D
:1003800021F00230110509F124C0D0913B01C0E0F9
:1003900014C0CF5F8C2F0E94520190912701D91772
:1003A00020F080E20E94710107C0ED2FF0E0E050E4
:1003B000FF4F80810E947101DF5FC03150F3809157
:1003C0003B018F5F80933B0104C010923B010E9470
:1003D0004E01C801DF91CF911F910F9108950F93A6
:1003E0001F93CF93DF93B62FA72FF82FE92F022F5C
:1003F000132FD42FC52F04C0062F172FD82FC92F86
:100400006B2F7A2F8F2F9E2F202F312F4D2F5C2F68
:100410000E94B502B02FA12FFD2FEC2F61157105A1
:100420008105910549F7602F712F8D2F9C2FDF914A
:10043000CF911F910F9108958BE0809381008DE7FC
:1004400090E0909389008093880082E080936F0011
:1004500010928500109284008091280190912901CA
:10046000A0912A01B0912B0180933601909337011E
:10047000A0933801B09339018FB780688FBF08957A
:1004800010928100089581E080933A01089580914F
:10049000360190913701A0913801B091390101974F
:1004A000A109B1098093360190933701A0933801D7
:1004B000B0933901892B8A2B8B2B91F40E94430234
:1004C0008091280190912901A0912A01B0912B01DE
:1004D0008093360190933701A0933801B09339018E
:1004E0000895609328017093290180932A019093C5
:1004F0002B016093360170933701809338019093FC
:10050000390108958FEF8AB91BB881B912B80E94DA
:100510005C01ECE3F1E0108284EF91E0A0E0B0E058
:1005200081839283A383B4831582168217821086F7
:100530008EE991E0928781876AEF70E080E090E039
:100540000E9471020E941C0280913A018823E1F30B
:10055000CCE3D1E0E985FA858881992787FD9095DC
:100560000995888310923A01EFCFA1E21A2EAA1BB7
:10057000BB1BFD010DC0AA1FBB1FEE1FFF1FA21753
:10058000B307E407F50720F0A21BB30BE40BF50B50
:10059000661F771F881F991F1A9469F760957095D9
:1005A000809590959B01AC01BD01CF010895F89411
:0205B000FFCF7B
:1005B200435331323042206973204C6567656E6463
:1005C2002E2E2E207761697420666F722069742046
:1005D2004441525921001F250100000001FA000088
:0605E20000F4010000001E
:00000001FF
