:100000000C948B000C94AA000C94AA000C94AA00E7
:100010000C94AA000C94AA000C94AA000C94AA00B8
:100020000C94AA000C94AA000C94AA000C94AA00A8
:100030000C94AA000C94AA000C94AA000C94AA0098
:100040000C94AA000C94AA000C94AA000C94AA0088
:100050000C94AA000C94AA000C94AA000C94AA0078
:100060000C94AA000C94AA000C94AA000C94AA0068
:100070000C94AA000C94AA000C94AA000C94AA0058
:100080000C94AA000C94AA000C94AA008901CC013B
:10009000CC01CC01CC01CC01CC01CC01CC01CC01F8
:1000A000CC01CC01CC01CC01CC01CC01CC01CC01E8
:1000B000CC01CC01CC01CC01CC01CC01CC01CC01D8
:1000C000CC01CC01CC01CC01CC01CC01CC01CC01C8
:1000D000CC01C801CC01CC01CC01CC01CC01CC01BC
:1000E000C101CC01CC01CC01CC01CC01C5018D01F9
:1000F0009101950199019D01A101A501A901AD0100
:10010000CC01CC01CC01CC01CC01CC01CC01B101A2
:10011000B501B901BD0111241FBECFEFD0E4DEBF90
:10012000CDBF11E0A0E0B1E0EEE0F6E000E00BBFF3
:1001300002C007900D92A430B107D9F711E0A4E0F6
:10014000B1E001C01D92A531B107E1F70E9469023B
:100150000C9405030C940000442349F021E030E0A6
:1001600002C0220F331F6A95E2F7822B089521E027
:1001700030E002C0220F331F6A95E2F720958223F8
:10018000089521E030E002C0220F331F6A95E2F7A4
:100190008223089540E064E08FEF0E94AC0082B9B2
:1001A000000080B160E080950E94C100811180C094
:1001B00080B161E080950E94C10081117BC080B157
:1001C00062E080950E94C100811176C080B163E039
:1001D00080950E94C100811171C040E065E08FEF01
:1001E0000E94AC0082B9000080B160E080950E945E
:1001F000C100811165C080B161E080950E94C1009D
:10020000811160C080B162E080950E94C1008111BF
:100210005BC080B163E080950E94C100811156C02F
:1002200040E066E08FEF0E94AC0082B9000080B130
:1002300060E080950E94C10081114AC080B161E0F8
:1002400080950E94C100811145C080B162E0809517
:100250000E94C100811140C080B163E080950E947E
:10026000C10081113BC040E067E08FEF0E94AC000D
:1002700082B9000080B160E080950E94C1008111C8
:100280002FC080B161E080950E94C10081112AC019
:1002900080B162E080950E94C100811125C080B1CB
:1002A00063E080950E94C1008823F9F084E40895FA
:1002B00081E3089584E3089587E308958AE2089529
:1002C00082E3089585E3089588E3089580E308951F
:1002D00083E3089586E3089589E3089583E208950A
:1002E00081E4089582E4089583E40895CF93DF9331
:1002F000EC010E94CA00209709F054C0482F50E03A
:100300004534510508F048C0FA01EA5BFF4F0C94F0
:10031000FC028FE18093040142C081E080930401DC
:100320003EC082E0809304013AC083E080930401E0
:1003300036C084E08093040132C085E080930401DC
:100340002EC086E0809304012AC087E080930401D8
:1003500026C088E08093040122C089E080930401D4
:100360001EC08AE0809304011AC08BE080930401D0
:1003700016C08CE08093040112C08DE080930401CC
:100380000EC08EE0809304010AC01092040107C0E1
:100390008FE08093040103C08BE18093040180917E
:1003A000040185B9CE01DF91CF9108950F931F937A
:1003B000CF93DF93B62FA72FF82FE92F022F132FFC
:1003C000D42FC52F04C0062F172FD82FC92F6B2F5E
:1003D0007A2F8F2F9E2F202F312F4D2F5C2F0E9491
:1003E000DA02B02FA12FFD2FEC2F611571058105C9
:1003F000910549F7602F712F8D2F9C2FDF91CF91A1
:100400001F910F9108958BE0809381008DE790E01C
:10041000909389008093880082E080936F0010920F
:100420008500109284008091000190910101A091BB
:100430000201B09103018093050190930601A093FE
:100440000701B09308018FB780688FBF089510929D
:100450008100089581E0809309010895809105014C
:1004600090910601A0910701B09108010197A1099F
:10047000B1098093050190930601A0930701B09301
:100480000801892B8A2B8B2B91F40E942A028091E0
:10049000000190910101A0910201B09103018093AC
:1004A000050190930601A0930701B09308010895F8
:1004B0006093000170930101809302019093030106
:1004C00060930501709306018093070190930801E2
:1004D0000895CF93DF9300D0CDB7DEB78FEF87B904
:1004E00018B884B915B890EF91B99FE092B98AB95C
:1004F0001BB8EAE0F1E0FA83E983108282E090E041
:10050000A0E0B0E081839283A383B4838583968344
:10051000A783B08786E791E0928781876AE070E0E1
:1005200080E090E00E9458020E94030200E010E088
:1005300037C0F801EE0FFF1FEC0FFD1FE180F280C6
:10054000D70115964D915D916D917C9118971196FB
:100550008D919D910D90BC91A02D481759076A0768
:100560007B0781F4D7011996ED91FC911A978C9134
:10057000992787FD90950995F7018083158216824A
:1005800017821086F70185819681A781B085019633
:10059000A11DB11D85839683A783B0870F5F1F4F71
:1005A0000115110531F2809109018823E1F31092C0
:1005B0000901BCCFA1E21A2EAA1BBB1BFD010DC075
:1005C000AA1FBB1FEE1FFF1FA217B307E407F50703
:1005D00020F0A21BB30BE40BF50B661F771F881FDF
:1005E000991F1A9469F760957095809590959B0175
:1005F000AC01BD01CF010895EE0FFF1F0024001CC8
:0E0600000BBE0790F691E02D0994F894FFCF01
:04060E0001000000E7
:00000001FF
