:100000000C944D000C946C000C946C000C946C00DF
:100010000C946C000C946C000C946C000C946C00B0
:100020000C946C000C946C000C946C000C946C00A0
:100030000C946C000C9499000C946C000C946C0063
:100040000C946C000C946C000C946C000C946C0080
:100050000C946C000C946C000C946C000C946C0070
:100060000C946C000C946C000C946C000C946C0060
:100070000C946C000C946C000C946C000C946C0050
:100080000C946C000C946C000C946C0005010C0139
:100090001E01300142015401660111241FBECFEF41
:1000A000D0E4DEBFCDBF11E0A0E0B1E0E2EAF3E0D2
:1000B00000E00BBF02C007900D92A430B107D9F742
:1000C00011E0A4E0B1E001C01D92AD30B107E1F74D
:1000D0000E94A4010C94CF010C9400008BE080934B
:1000E00081008DE790E0909389008093880082E002
:1000F00080936F001092850010928400809100011F
:1001000090910101A0910201B09103018093060139
:1001100090930701A0930801B09309018FB78068FD
:100120008FBF089510928100089581E080930A01A5
:1001300008951F920F920FB60F9211240BB60F92D3
:100140002F933F934F935F936F937F938F939F93DF
:10015000AF93BF93EF93FF938091060190910701B6
:10016000A0910801B09109010197A109B1098093FB
:10017000060190930701A0930801B0930901892B10
:100180008A2B8B2B91F40E94950080910001909115
:100190000101A0910201B0910301809306019093A7
:1001A0000701A0930801B0930901FF91EF91BF915E
:1001B000AF919F918F917F916F915F914F913F91FF
:1001C0002F910F900BBE0F900FBE0F901F901895A0
:1001D00060930001709301018093020190930301E9
:1001E00060930601709307018093080190930901C1
:1001F0000895E0910B01F0910C01E730F10508F052
:1002000076C0EA5BFF4F0C94C60181E090E09093CA
:100210000C0180930B016BC080910501882339F09C
:1002200082E090E090930C0180930B0160C083E02A
:1002300090E090930C0180930B0159C080910501CF
:10024000882339F081E090E090930C0180930B01BA
:100250004EC082E090E090930C0180930B0147C068
:1002600080910501882339F084E090E090930C019F
:1002700080930B013CC085E090E090930C0180934B
:100280000B0135C080910501882339F083E090E0AF
:1002900090930C0180930B012AC084E090E090932E
:1002A0000C0180930B0123C080910501882339F054
:1002B00086E090E090930C0180930B0118C081E0E0
:1002C00090E090930C0180930B0111C08091050187
:1002D000882339F085E090E090930C0180930B0126
:1002E00006C086E090E090930C0180930B01809112
:1002F0000B0190910C0183309105B1F030F4813005
:10030000910551F0029761F0089585309105A1F0B3
:1003100078F00697A9F0089581E08093040108958C
:1003200081E080930401089582E0809304010895A0
:1003300082E080930401089584E08093040108958D
:1003400084E08093040108958FEF84B915B811B843
:1003500082B969E170E080E090E00E94E8000E94CC
:100360006E0010920C0110920B0180B18095887084
:10037000809305010E94F90080910A018823E1F32E
:1003800010920A018091040185B9EFCFEE0FFF1F93
:100390000024001C0BBE0790F691E02D0994F89400
:0203A000FFCF8D
:0403A2000100000056
:00000001FF
