:100000000C9446000C9465000C9465000C946500FB
:100010000C9465000C9465000C9465000C946500CC
:100020000C9465000C9465000C9465000C946500BC
:100030000C9465000C9465000C9465000C946500AC
:100040000C9465000C9465000C9465000C9465009C
:100050000C9465000C9465000C9465000C9465008C
:100060000C9465000C9465000C9465000C9465007C
:100070000C9465000C9465000C9465000C9465006C
:100080000C9465000C9465000C94650011241FBE4F
:10009000CFEFD0E4DEBFCDBF11E0A0E0B1E0EAEBEE
:1000A000F1E000E00BBF02C007900D92AE30B10747
:1000B000D9F721E0AEE0B1E001C01D92A031B20756
:1000C000E1F70E94CF000C94DB000C940000CF936A
:1000D000C82F8A3019F48DE00E9467008091C0001B
:1000E00085FFFCCFC093C60080E090E0CF910895DB
:1000F00080910E0190910F018130910571F030F0E7
:1001000082309105D1F0039791F140C081E090E0F9
:1001100090930F0180930E0139C0029B07C082E0CB
:1001200090E090930F0180930E0130C081E090E049
:1001300090930F0180930E0129C0019B07C083E0BB
:1001400090E090930F0180930E0120C080B1811147
:1001500007C082E090E090930F0180930E0116C0DB
:1001600081E090E090930F0180930E010FC0079BF8
:1001700007C081E090E090930F0180930E0106C0CC
:1001800083E090E090930F0180930E0180910E0127
:1001900090910F01039711F481E085B908951092B1
:1001A0000F0110920E0111B88FEF82B984B915B802
:0A01B0000E947800FDCFF894FFCF05
:0E01BA000000000200000000670000000000CE
:00000001FF
