:100000000C9446000C9465000C9465000C946500FB
:100010000C9465000C9465000C9465000C946500CC
:100020000C9465000C9465000C9465000C946500BC
:100030000C9465000C9492000C9465000C9465007F
:100040000C9465000C9465000C9465000C9465009C
:100050000C9465000C9465000C9465000C9465008C
:100060000C9465000C9465000C9465000C9465007C
:100070000C9465000C9465000C9465000C9465006C
:100080000C9465000C9465000C94650011241FBE4F
:10009000CFEFD0E4DEBFCDBF11E0A0E0B1E0E6E0FD
:1000A000F4E000E00BBF02C007900D92A430B1074E
:1000B000D9F721E0A4E0B1E001C01D92A631B2075A
:1000C000E1F70E94C3010C9401020C9400008BE044
:1000D000809381008DE790E0909389008093880061
:1000E00082E080936F0010928500109284008091CE
:1000F000000190910101A0910201B0910301809350
:10010000080190930901A0930A01B0930B018FB7E6
:1001100080688FBF089510928100089581E08093D8
:100120000C0108951F920F920FB60F9211240BB677
:100130000F922F933F934F935F936F937F938F9380
:100140009F93AF93BF93EF93FF938091080190919A
:100150000901A0910A01B0910B010197A109B10910
:100160008093080190930901A0930A01B0930B01B9
:10017000892B8A2B8B2B91F40E948E008091000199
:1001800090910101A0910201B091030180930801B7
:1001900090930901A0930A01B0930B01FF91EF9195
:1001A000BF91AF919F918F917F916F915F914F918F
:1001B0003F912F910F900BBE0F900FBE0F901F908D
:1001C0001895609300017093010180930201909350
:1001D0000301609308017093090180930A019093D1
:1001E0000B010895809112019091130181309105C6
:1001F00071F030F08230910589F00397B1F01BC0A7
:1002000081E090E0909313018093120114C082E08A
:1002100090E090931301809312010DC083E090E071
:10022000909313018093120106C081E090E09093B7
:100230001301809312018091120190911301823079
:10024000910549F08330910551F0019759F481E00F
:1002500080930701089582E080930701089584E068
:1002600080930701089580910D0190910E018130D6
:10027000910559F018F0029779F014C081E090E0F0
:1002800090930E0180930D010DC082E090E0909359
:100290000E0180930D0106C081E090E090930E0165
:1002A00080930D0180910D0190910E018130910597
:1002B00019F0029729F0089588E0809306010895C7
:1002C00010920601089580B18095847080930F018B
:1002D00020911001309111012130310599F020F069
:1002E00022303105E9F029C0882339F081E090E01F
:1002F000909311018093100120C01092110110926F
:1003000010011BC0882339F082E090E09093110126
:100310008093100112C010921101109210010DC0B3
:10032000882339F081E090E09093110180931001CF
:1003300004C010921101109210018091100190914F
:1003400011018130910539F018F0029741F00895BC
:1003500010920401089580E18093040108951092A1
:10036000040108958091140190911501892B51F495
:100370009091070180910601892B90910401892BAE
:1003800080930501089511B88FEF82B984B915B82B
:100390006CE271E080E090E00E94E1000E94670062
:1003A000109213011092120110920E0110920D0181
:1003B000C12CD12C760188EEC81683E0D806E10462
:1003C000F10428F00E943301C12CD12C76010E9447
:1003D000F2000E9463010E94B20110921501109276
:1003E00014018091050182B980910C018823E1F309
:1003F00010920C018CE2C80E81E0D81EE11CF11CA9
:06040000DACFF894FFCFF3
:0404060001000000F1
:00000001FF
