:100000000C9446000C9465000C9465000C946500FB
:100010000C9465000C9465000C9465000C946500CC
:100020000C9465000C9465000C9465000C946500BC
:100030000C9465000C9492000C9465000C9465007F
:100040000C9465000C9465000C9465000C9465009C
:100050000C9465000C9465000C9465000C9465008C
:100060000C9465000C9465000C9465000C9465007C
:100070000C9465000C9465000C9465000C9465006C
:100080000C9465000C9465000C94650011241FBE4F
:10009000CFEFD0E4DEBFCDBF11E0A0E0B1E0EEE8ED
:1000A000F3E000E00BBF02C007900D92A430B1074F
:1000B000D9F711E0A4E0B1E001C01D92A131B10770
:1000C000E1F70E94AD010C94C5010C9400008BE097
:1000D000809381008DE790E0909389008093880061
:1000E00082E080936F0010928500109284008091CE
:1000F000000190910101A0910201B0910301809350
:10010000040190930501A0930601B09307018FB7F6
:1001100080688FBF089510928100089581E08093D8
:10012000080108951F920F920FB60F9211240BB67B
:100130000F922F933F934F935F936F937F938F9380
:100140009F93AF93BF93EF93FF938091040190919E
:100150000501A0910601B09107010197A109B1091C
:100160008093040190930501A0930601B0930701C9
:10017000892B8A2B8B2B91F40E948E008091000199
:1001800090910101A0910201B091030180930401BB
:1001900090930501A0930601B0930701FF91EF91A1
:1001A000BF91AF919F918F917F916F915F914F918F
:1001B0003F912F910F900BBE0F900FBE0F901F908D
:1001C0001895609300017093010180930201909350
:1001D00003016093040170930501809306019093DD
:1001E0000701089580910E0190910F0181309105D2
:1001F00071F030F08230910589F00397B1F01BC0A7
:1002000081E090E090930F0180930E0114C082E092
:1002100090E090930F0180930E010DC083E090E079
:1002200090930F0180930E0106C081E090E09093BF
:100230000F0180930E0180910E0190910F01823089
:10024000910549F08330910551F0019759F481E00F
:1002500080931001089582E080931001089584E056
:1002600080931001089580910A0190910B018130D3
:10027000910559F018F0029779F014C081E090E0F0
:1002800090930B0180930A010DC082E090E090935F
:100290000B0180930A0106C081E090E090930B016E
:1002A00080930A0180910A0190910B0181309105A0
:1002B00019F0029729F0089588E0809309010895C4
:1002C00010920901089580910C0190910D018130E7
:1002D000910571F030F08230910589F00397B1F00B
:1002E0001BC081E090E090930D0180930C0114C03D
:1002F00082E090E090930D0180930C010DC083E0AB
:1003000090E090930D0180930C0106C081E090E095
:1003100090930D0180930C0180910C0190910D013F
:100320008230910561F08330910581F00197A1F44D
:100330009091100180910901890F82B908959091DF
:10034000100180910901890F82B9089590911001DF
:1003500080910901890F82B908958FEF81B912B890
:1003600068EE73E080E090E00E94E1000E94670088
:100370000E94F2000E9433010E94630180910801F3
:0E0380008823E1F310920801F3CFF894FFCF29
:04038E00010000006A
:00000001FF
