:100000000C9446000C9465000C9465000C946500FB
:100010000C9465000C9465000C9465000C946500CC
:100020000C9465000C9465000C9465000C946500BC
:100030000C9465000C9465000C9465000C946500AC
:100040000C9465000C9465000C9465000C9465009C
:100050000C9465000C9465000C9465000C9465008C
:100060000C9465000C9465000C9465000C9465007C
:100070000C9465000C9465000C9465000C9465006C
:100080000C9465000C9465000C94650011241FBE4F
:10009000CFEFD0E4DEBFCDBF11E0A0E0B1E0E4E3FC
:1000A000F2E000E00BBF02C007900D92AE30B10746
:1000B000D9F721E0AEE0B1E001C01D92A031B20756
:1000C000E1F70E940C010C9418010C940000CF93EE
:1000D000C82F8A3019F48DE00E9467008091C0001B
:1000E00085FFFCCFC093C60080E090E0CF910895DB
:1000F00080910E0190910F018130910579F038F0D7
:100100008230910569F1039709F44DC06EC081E01A
:1001100090E090930F0180930E0167C080B1813011
:1001200039F482E090E090930F0180930E0118C0A3
:1001300080B1823039F483E090E090930F01809396
:100140000E010EC080B1833029F410920F0110927D
:100150000E0106C081E090E090930F0180930E01A4
:10016000009B0AC088B18A3038F482E090E0909316
:100170000F0180930E0139C0019B08C088B183E054
:1001800090E090930F0180930E012FC080B18330D7
:1001900029F410920F0110920E0127C010920F0146
:1001A00010920E0122C0009B0AC088B18A3038F438
:1001B00082E090E090930F0180930E0116C0019BA6
:1001C00008C088B183E090E090930F0180930E0106
:1001D0000CC080B1833029F410920F0110920E01EF
:1001E00004C010920F0110920E0180910E019091A7
:1001F0000F018230910541F08330910549F001975C
:1002000051F487E088B9089588B18F5F88B908955F
:1002100088B1815088B9089510920F0110920E0193
:1002200011B88FEF82B987B918B80E947800FDCF56
:04023000F894FFCF70
:0E023400000000020000000067000000000053
:00000001FF
