:100000000C9446000C9450000C9450000C9450003A
:100010000C9450000C9450000C9450000C94500020
:100020000C9450000C9450000C9450000C94500010
:100030000C9450000C9450000C9450000C94500000
:100040000C9450000C9450000C9450000C945000F0
:100050000C9450000C9450000C9450000C945000E0
:100060000C9450000C9450000C9450000C945000D0
:100070000C9450000C9450000C9450000C945000C0
:100080000C9450000C9450000C94500011241FBE8E
:10009000CFEFD0E4DEBFCDBF0E9458000C947600B5
:1000A0000C940000EAE7F0E08081806E8083089580
:1000B00011B88FEF82B984B915B88AB918B80E94FF
:1000C00052002FE131E0809178009091790028175B
:1000D000390708F49C01A90156954795841795079F
:1000E00010F081E001C080E085B9EDCFF894FFCF3A
:00000001FF
