:100000000C9446000C9465000C9465000C946500FB
:100010000C9465000C9465000C9465000C946500CC
:100020000C9465000C9465000C9465000C946500BC
:100030000C9465000C9465000C9465000C946500AC
:100040000C9465000C9465000C9465000C9465009C
:100050000C9465000C9465000C9465000C9465008C
:100060000C9465000C9465000C9465000C9465007C
:100070000C9465000C9465000C9465000C9465006C
:100080000C9465000C9465000C94650011241FBE4F
:10009000CFEFD0E4DEBFCDBF11E0A0E0B1E0E0E003
:1000A000F7E000E00BBF02C007900D92A032B1074D
:1000B000D9F711E0A0E2B1E001C01D92A832B1076A
:1000C000E1F70E94F0010C947E030C940000CF92A3
:1000D000DF92EF92FF926B017C012091220130911F
:1000E000230140912401509125010E94050288239B
:1000F00009F458C020E030E0A901C701B6010E9410
:100100000502811106C0E1E9F0E0808188708083FA
:1001100005C0E1E9F0E080818360808328E539E370
:1001200044E75FE3C701B6010E94050288233CF45F
:100130008FEF9FEF909399008093980027C020E065
:1001400034E244EF56E4C701B6010E9417031816C3
:100150002CF4109299001092980018C020E030E022
:1001600040E053E4C701B6010E941B039B01AC01B0
:1001700060E074E284EF9AE40E9409020E94710236
:1001800061507109709399006093980010929500E6
:1001900010929400C0922201D0922301E092240197
:1001A000F0922501FF90EF90DF90CF90089580E4CA
:1001B000809390008BE08093910060E070E0CB0131
:1001C0000E94670008951092900010929100089587
:1001D00080912601909127018230910509F447C052
:1001E00028F4009759F0019781F0B3C0833091054E
:1001F00009F468C0049709F490C0ABC081E090E0B6
:100200009093270180932601A4C080912101813021
:1002100039F484E090E0909327018093260199C0FF
:10022000823071F480912001873018F48F5F8093C1
:10023000200182E090E0909327018093260189C0FD
:10024000843071F480912001882319F081508093CB
:10025000200183E090E0909327018093260179C0EC
:1002600081E090E0909327018093260172C08091F5
:100270002101813039F481E090E09093270180934F
:10028000260167C0823039F482E090E09093270124
:10029000809326015EC0843071F480912001882310
:1002A00019F081508093200183E090E09093270122
:1002B000809326014EC081E090E0909327018093C7
:1002C000260147C080912101813039F484E090E01B
:1002D00090932701809326013CC0823071F4809175
:1002E0002001873018F48F5F8093200182E090E036
:1002F00090932701809326012CC0843039F483E049
:1003000090E0909327018093260123C081E090E044
:1003100090932701809326011CC080912101813098
:1003200039F484E090E0909327018093260111C076
:10033000823039F482E090E0909327018093260187
:1003400008C0843031F483E090E0909327018093DB
:100350002601809126019091270182309105D1F0EC
:1003600018F4019739F008958330910519F1049735
:1003700089F10895E0912001F0E0EE0FFF1FEE0FEC
:10038000FF1FE050FF4F60817181828193810E9445
:1003900067000895E0912001F0E0EE0FFF1FEE0FDF
:1003A000FF1FE050FF4F60817181828193810E9425
:1003B00067000895E0912001F0E0EE0FFF1FEE0FBF
:1003C000FF1FE050FF4F60817181828193810E9405
:1003D0006700089560E070E0CB010E946700089517
:1003E00011B88FEF82B984B915B88AB91BB80E94C9
:1003F000D700109227011092260180B18095877056
:10040000809321010E94E800F8CF9CD008F481E09D
:1004100008950CD0D2C0CAD040F0C1D030F021F441
:100420005F3F19F0B3C05111FCC0B6C0D7D098F3EC
:100430009923C9F35523B1F3951B550BBB27AA2765
:1004400062177307840738F09F5F5F4F220F331FD7
:10045000441FAA1FA9F333D00E2E3AF0E0E830D0A3
:1004600091505040E695001CCAF729D0FE2F27D0A6
:10047000660F771F881FBB1F261737074807AB0774
:10048000B0E809F0BB0B802DBF01FF2793585F4FE9
:100490002AF09E3F510568F079C0C3C05F3FECF37E
:1004A000983EDCF3869577956795B795F7959F5FAE
:1004B000C9F7880F911D9695879597F90895E1E002
:1004C000660F771F881FBB1F621773078407BA0761
:1004D00020F0621B730B840BBA0BEE1F88F7E095BC
:1004E000089504D06894B1119CC008957FD088F01D
:1004F0009F5790F0B92F9927B751A0F0D1F0660F10
:10050000771F881F991F1AF0BA95C9F712C0B1302A
:1005100081F086D0B1E0089583C0672F782F8827B7
:10052000B85F39F0B93FCCF3869577956795B39569
:10053000D9F73EF490958095709561957F4F8F4FD8
:100540009F4F0895990F0008550FAA0BE0E8FEEFA2
:1005500016161706E807F907C0F012161306E40787
:10056000F50798F0621B730B840B950B39F40A2680
:1005700061F0232B242B252B21F408950A2609F45E
:10058000A140A6958FEF811D811D089597F99F6762
:1005900080E870E060E008959FEF80EC089500240B
:1005A0000A941616170618060906089500240A94D8
:1005B00012161306140605060895092E0394000C5E
:1005C00011F4882352F0BB0F40F4BF2B11F460FFED
:1005D00004C06F5F7F4F8F4F9F4F089557FD905816
:1005E000440F551F59F05F3F71F04795880F97FBF7
:1005F000991F61F09F3F79F08795089512161306B1
:100600001406551FF2CF4695F1DF08C016161706DF
:100610001806991FF1CF8695710561050894089514
:10062000E894BB2766277727CB0197F908958ADFDF
:1006300008F48FEF08950BD0C0CFB1DF28F0B6DFFC
:1006400018F0952309F0A2CFA7CF1124EACFC6DF77
:10065000A0F3959FD1F3950F50E0551F629FF001D5
:10066000729FBB27F00DB11D639FAA27F00DB11D2E
:10067000AA1F649F6627B00DA11D661F829F2227B7
:10068000B00DA11D621F739FB00DA11D621F839F3E
:10069000A00D611D221F749F3327A00D611D231F14
:1006A000849F600D211D822F762F6A2F11249F5762
:1006B00050408AF0E1F088234AF0EE0FFF1FBB1F85
:1006C000661F771F881F91505040A9F79E3F510524
:1006D00070F05CCFA6CF5F3FECF3983EDCF38695DD
:1006E00077956795B795F795E7959F5FC1F7FE2BCF
:1006F000880F911D9695879597F90895F894FFCFE7
:10070000A4D082437BD49243A4D0A443719DAE4332
:100710000000C4430000DC43A4F0F64300D00244D0
:00000001FF
