:100000000C9446000C9465000C9465000C946500FB
:100010000C9465000C9465000C9465000C946500CC
:100020000C9465000C9465000C9465000C946500BC
:100030000C9465000C94FF000C9465000C94650012
:100040000C9465000C9465000C9465000C9465009C
:100050000C9465000C9465000C9465000C9465008C
:100060000C9465000C9465000C9465000C9465007C
:100070000C9465000C9465000C9465000C9465006C
:100080000C9465000C9465000C94650011241FBE4F
:10009000CFEFD0E4DEBFCDBF11E0A0E0B1E0E0E6FD
:1000A000F4E000E00BBF02C007900D92A430B1074E
:1000B000D9F711E0A4E0B1E001C01D92AF30B10763
:1000C000E1F70E9404020C942E020C94000040E020
:1000D00050E00CC000002F5F3F4F02C020E030E036
:1000E000273063E03607B4F34F5F5F4F4817590777
:1000F000ACF308955E9888B95F9A00005F9882E03B
:1001000090E00E946700089581E00E947A000895BF
:10011000813120F481580E947A00089581550E940F
:100120007A00089584E690E00E94670088E30E94C8
:100130007A0086E00E947A008FE00E947A0081E0D7
:100140000E947A008AE090E00E94670008955E9A1B
:1001500088B95F9A00005F9881E090E00E94670094
:100160000895EF92FF920F931F93CF93DF93182F71
:10017000EB010E9484000EC001E0010F812F0E945C
:1001800088007E018FEFE81AF80A88810E94A70094
:10019000102FE70188818111EFCFDF91CF911F915F
:1001A0000F91FF90EF9008958BE0809381008DE791
:1001B00090E0909389008093880082E080936F00A4
:1001C00010928500109284008091000190910101AD
:1001D000A0910201B0910301809306019093070161
:1001E000A0930801B09309018FB780688FBF08956D
:1001F00010928100089581E080930A0108951F9272
:100200000F920FB60F9211240BB60F922F933F93BC
:100210004F935F936F937F938F939F93AF93BF930E
:10022000EF93FF938091060190910701A09108013F
:10023000B09109010197A109B1098093060190933A
:100240000701A0930801B0930901892B8A2B8B2BFE
:1002500091F40E94FB008091000190910101A09116
:100260000201B09103018093060190930701A093CE
:100270000801B0930901FF91EF91BF91AF919F9158
:100280008F917F916F915F914F913F912F910F903F
:100290000BBE0F900FBE0F901F901895609300013A
:1002A0007093010180930201909303016093060112
:1002B000709307018093080190930901089580B11C
:1002C0008095817080930E0190B19095927090937B
:1002D0000D0120910B0130910C012130310581F18C
:1002E00048F02230310509F446C02330310509F4C5
:1002F0005DC06BC0882349F0911107C081E090E098
:1003000090930C0180930B0160C0811109C0992367
:1003100039F082E090E090930C0180930B0155C07E
:10032000882349F0992339F083E090E090930C0101
:1003300080930B014AC010920C0110920B0145C032
:10034000882349F0911107C081E090E090930C015F
:1003500080930B013AC0882349F0992339F083E058
:1003600090E090930C0180930B012FC010920C0130
:1003700010920B012AC0811109C0992339F082E043
:1003800090E090930C0180930B011FC0882349F0EB
:10039000992339F083E090E090930C0180930B0156
:1003A00014C010920C0110920B010FC0882349F069
:1003B000992339F083E090E090930C0180930B0136
:1003C00004C010920C0110920B0180910B019091CE
:1003D0000C018230910569F08330910591F001970D
:1003E00091F480910401893070F48F5F809304014F
:1003F000089580910401882331F081508093040195
:10040000089510920401089511B88FEF82B987B949
:1004100018B88AB91BB868EE73E080E090E00E94DB
:100420004E010E94D4000E9492000E94840010920B
:100430000C0110920B011092040181E00E948800CF
:100440000E945F0180910401805D0E94A70080915D
:100450000A018823E1F310920A01EFCFF894FFCF4D
:040460000100000097
:00000001FF
