:100000000C9446000C9465000C9465000C946500FB
:100010000C9465000C9465000C9465000C946500CC
:100020000C9465000C9465000C9465000C946500BC
:100030000C9465000C94FF000C9465000C94650012
:100040000C9465000C9465000C9465000C9465009C
:100050000C9465000C9465000C9465000C9465008C
:100060000C9465000C9465000C9465000C9465007C
:100070000C9465000C9465000C9465000C9465006C
:100080000C9465000C9465000C94650011241FBE4F
:10009000CFEFD0E4DEBFCDBF11E0A0E0B1E0EAE7F2
:1000A000F3E000E00BBF02C007900D92A430B1074F
:1000B000D9F711E0A4E0B1E001C01D92AC30B10766
:1000C000E1F70E94A0010C94BB010C94000040E0F9
:1000D00050E00CC000002F5F3F4F02C020E030E036
:1000E000273063E03607B4F34F5F5F4F4817590777
:1000F000ACF308955E9888B95F9A00005F9882E03B
:1001000090E00E946700089581E00E947A000895BF
:10011000813120F481580E947A00089581550E940F
:100120007A00089584E690E00E94670088E30E94C8
:100130007A0086E00E947A008FE00E947A0081E0D7
:100140000E947A008AE090E00E94670008955E9A1B
:1001500088B95F9A00005F9881E090E00E94670094
:100160000895EF92FF920F931F93CF93DF93182F71
:10017000EB010E9484000EC001E0010F812F0E945C
:1001800088007E018FEFE81AF80A88810E94A70094
:10019000102FE70188818111EFCFDF91CF911F915F
:1001A0000F91FF90EF9008958BE0809381008DE791
:1001B00090E0909389008093880082E080936F00A4
:1001C00010928500109284008091000190910101AD
:1001D000A0910201B0910301809305019093060163
:1001E000A0930701B09308018FB780688FBF08956F
:1001F00010928100089581E08093090108951F9273
:100200000F920FB60F9211240BB60F922F933F93BC
:100210004F935F936F937F938F939F93AF93BF930E
:10022000EF93FF938091050190910601A091070142
:10023000B09108010197A109B1098093050190933C
:100240000601A0930701B0930801892B8A2B8B2B01
:1002500091F40E94FB008091000190910101A09116
:100260000201B09103018093050190930601A093D0
:100270000701B0930801FF91EF91BF91AF919F915A
:100280008F917F916F915F914F913F912F910F903F
:100290000BBE0F900FBE0F901F901895609300013A
:1002A0007093010180930201909303016093050113
:1002B000709306018093070190930801089580913F
:1002C0000A0190910B018130910571F030F082307C
:1002D000910589F00397B1F01BC081E090E0909305
:1002E0000B0180930A0114C082E090E090930B010F
:1002F00080930A010DC083E090E090930B018093FE
:100300000A0106C081E090E090930B0180930A01FE
:1003100080910A0190910B018230910549F0833060
:10032000910551F0019759F481E0809304010895FB
:1003300082E080930401089584E08093040108958D
:100340008FEF87B918B868EE73E080E090E00E9404
:100350004E010E94D40010920B0110920A010E94DB
:100360005F01809109018823E1F3109209018091D6
:0A037000040188B9F4CFF894FFCF20
:04037A00010000007E
:00000001FF
