:100000000C944E000C946D000C946D000C946D00DB
:100010000C946D000C946D000C946D000C946D00AC
:100020000C946D000C946D000C946D000C946D009C
:100030000C946D000C9407010C946D000C946D00F1
:100040000C946D000C946D000C946D000C946D007C
:100050000C946D000C946D000C946D000C946D006C
:100060000C946D000C946D000C946D000C946D005C
:100070000C946D000C946D000C946D000C946D004C
:100080000C946D000C946D000C946D007D01840146
:100090008B01AE01EA01CC010702240211241FBE2C
:1000A000CFEFD0E4DEBFCDBF11E0A0E0B1E0E8E9E2
:1000B000F5E000E00BBF02C007900D92A430B1073D
:1000C000D9F711E0A4E0B1E001C01D92AF30B10753
:1000D000E1F70E94A3020C94CA020C94000040E0D5
:1000E00050E00CC000002F5F3F4F02C020E030E026
:1000F000273063E03607B4F34F5F5F4F4817590767
:10010000ACF308955E9888B95F9A00005F9882E02A
:1001100090E00E946F00089581E00E94820008959F
:10012000813120F481580E948200089581550E94F7
:100130008200089584E690E00E946F0088E30E94A8
:10014000820086E00E9482008FE00E94820081E0AF
:100150000E9482008AE090E00E946F0008955E9AFB
:1001600088B95F9A00005F9881E090E00E946F007C
:100170000895EF92FF920F931F93CF93DF93182F61
:10018000EB010E948C000EC001E0010F812F0E9444
:1001900090007E018FEFE81AF80A88810E94AF0074
:1001A000102FE70188818111EFCFDF91CF911F914F
:1001B0000F91FF90EF9008958BE0809381008DE781
:1001C00090E0909389008093880082E080936F0094
:1001D000109285001092840080910001909101019D
:1001E000A0910201B0910301809304019093050155
:1001F000A0930601B09307018FB780688FBF089561
:1002000010928100089581E08093080108951F9263
:100210000F920FB60F9211240BB60F922F933F93AC
:100220004F935F936F937F938F939F93AF93BF93FE
:10023000EF93FF938091040190910501A091060135
:10024000B09107010197A109B1098093040190932E
:100250000501A0930601B0930701892B8A2B8B2BF4
:1002600091F40E9403018091000190910101A091FD
:100270000201B09103018093040190930501A093C2
:100280000601B0930701FF91EF91BF91AF919F914C
:100290008F917F916F915F914F913F912F910F902F
:1002A0000BBE0F900FBE0F901F901895609300012A
:1002B0007093010180930201909303016093040104
:1002C000709305018093060190930701089590B102
:1002D0009095917090930B0180B18095827080937E
:1002E0000A01E0910D01F0910E01E830F10508F0EE
:1002F000BDC0EA5BFF4F0C94C10281E090E0909397
:100300000E0180930D01B6C082E090E090930E0143
:1003100080930D01AFC0992349F0811107C083E09C
:1003200090E090930E0180930D01A4C0882349F0C2
:10033000911107C085E090E090930E0180930D012C
:1003400099C0882309F496C0992309F493C087E0E3
:1003500090E090930E0180930D018CC09923A9F039
:10036000882339F087E090E090930E0180930D018F
:1003700081C083E090E090930E0180930D01809105
:100380000C018F5F80930C0175C084E090E0909326
:100390000E0180930D016EC08823A9F0992339F0D6
:1003A00087E090E090930E0180930D0163C085E09B
:1003B00090E090930E0180930D0180910C018F5F6E
:1003C00080930C0157C086E090E090930E018093DB
:1003D0000D0150C0882349F0992339F087E090E05F
:1003E00090930E0180930D0145C0811102C09923A5
:1003F00039F084E090E090930E0180930D013AC0B3
:1004000082E090E090930E0180930D0133C0882329
:1004100049F0992339F087E090E090930E018093A2
:100420000D0128C0811102C0992339F086E090E0C7
:1004300090930E0180930D011DC082E090E0909397
:100440000E0180930D0116C0811102C0992339F06D
:1004500087E090E090930E0180930D010BC082E045
:1004600090E090930E0180930D0104C010920E0154
:1004700010920D0180910D0190910E018430910533
:1004800009F451C030F48130910559F0039771F0AF
:100490004FC08630910509F449C020F10797F1F16A
:1004A00047C01092090110920C0142C090910901BD
:1004B0009930F0F520910C018DEC289F812D1124AD
:1004C000869586958695880F382F330F330F830FC7
:1004D000281711F0213061F5222351F19F5F90938D
:1004E000090126C090910901992311F120910C0175
:1004F0008DEC289F812D1124869586958695880FF1
:10050000382F330F330F830F281711F0213081F468
:10051000222371F09150909309010AC010920901B1
:1005200010920C0105C010920C0102C010920C0137
:100530000E948C0081E00E94900080910901805D02
:100540000E94AF00089510920E0110920D0111B893
:100550008FEF82B987B918B88AB91BB864E670E022
:1005600080E090E00E9456010E94DC000E949A0008
:100570000E946701809108018823E1F3109208012D
:10058000F7CFEE0FFF1F0024001C0BBE0790F69163
:08059000E02D0994F894FFCF5F
:04059800010000005E
:00000001FF
