:100000000C9446000C9465000C9465000C946500FB
:100010000C9465000C9465000C9465000C946500CC
:100020000C9465000C9465000C9465000C946500BC
:100030000C9465000C9487010C9465000C94650089
:100040000C9465000C9465000C9465000C9465009C
:100050000C9465000C9465000C9465000C9465008C
:100060000C9465000C9465000C9465000C9465007C
:100070000C9465000C9465000C9465000C9465006C
:100080000C9465000C9465000C94650011241FBE4F
:10009000CFEFD0E4DEBFCDBF11E0A0E0B1E0E0E4FF
:1000A000F5E000E00BBF02C007900D92AE32B10741
:1000B000D9F711E0AEE2B1E001C01D92A335B1075E
:1000C000E1F70E94E7010C949E020C94000040E0CE
:1000D00050E00CC000002F5F3F4F02C020E030E036
:1000E000273063E03607B4F34F5F5F4F4817590777
:1000F000ACF308955E9888B95F9A00005F9882E03B
:1001000090E00E946700089581E00E947A000895BF
:10011000813120F481580E947A00089581550E940F
:100120007A00089584E690E00E94670088E30E94C8
:100130007A0086E00E947A008FE00E947A0081E0D7
:100140000E947A008AE090E00E94670008955E9A1B
:1001500088B95F9A00005F9881E090E00E94670094
:100160000895EF92FF920F931F93CF93DF93182F71
:10017000EB010E9484000EC001E0010F812F0E945C
:1001800088007E018FEFE81AF80A88810E94A70094
:10019000102FE70188818111EFCFDF91CF911F915F
:1001A0000F91FF90EF900895CF93DF93EC011092A1
:1001B000400110923F011BC080912E01A901480F00
:1001C000511DCA0166E270E00E945402E0910001F4
:1001D000F0910101E80FF91F8081F901EF5BFE4FFB
:1001E00080832F5F3F4F3093400120933F01209148
:1001F0003F013091400120313105F4F280912E0110
:1002000090E0019666E270E00E94540280932E0115
:1002100061E471E081E00E94B100CE01DF91CF91F5
:100220000895442349F021E030E002C0220F331F3B
:100230006A95E2F7822B089521E030E002C0220F98
:10024000331F6A95E2F720958223089521E030E07C
:1002500002C0220F331F6A95E2F7822308950F939D
:100260001F93CF93DF93B62FA72FF82FE92F022FDD
:10027000132FD42FC52F04C0062F172FD82FC92F07
:100280006B2F7A2F8F2F9E2F202F312F4D2F5C2FEA
:100290000E946802B02FA12FFD2FEC2F6115710570
:1002A0008105910549F7602F712F8D2F9C2FDF91CC
:1002B000CF911F910F9108958BE0809381008DE77E
:1002C00090E0909389008093880082E080936F0093
:1002D0001092850010928400809102019091030198
:1002E000A0910401B091050180932F0190933001FA
:1002F000A0933101B09332018FB780688FBF08950A
:1003000010928100089581E08093330108951F9237
:100310000F920FB60F9211240BB60F922F933F93AB
:100320004F935F936F937F938F939F93AF93BF93FD
:10033000EF93FF9380912F0190913001A0913101B3
:10034000B09132010197A109B10980932F019093D7
:100350003001A0933101B0933201892B8A2B8B2B72
:1003600091F40E9483018091020190910301A09178
:100370000401B091050180932F0190933001A09367
:100380003101B0933201FF91EF91BF91AF919F91F5
:100390008F917F916F915F914F913F912F910F902E
:1003A0000BBE0F900FBE0F901F9018956093020127
:1003B00070930301809304019093050160932F01D2
:1003C0007093300180933101909332010895CF935F
:1003D000DF9300D0CDB7DEB78FEF8AB91BB887B9EE
:1003E00018B8E4E3F1E0FA83E983808384E190E0E4
:1003F000A0E0B0E081839283A383B4838583968356
:10040000A783B08784ED90E09287818764E170E0F4
:1004100080E090E00E94D6010E945C010E94920060
:1004200000E010E037C0F801EE0FFF1FEC0FFD1FDA
:10043000E180F280D70115964D915D916D917C918F
:10044000189711968D919D910D90BC91A02D4817F4
:1004500059076A077B0781F4D7011996ED91FC9142
:100460001A978C91992787FD90950995F7018083BC
:100470001582168217821086F70185819681A781E1
:10048000B0850196A11DB11D85839683A783B08792
:100490000F5F1F4F0115110531F280913301882341
:1004A000E1F310923301BCCF97FB072E16F40094B2
:1004B00007D077FD09D00E948A0207FC05D03EF4E0
:1004C000909581959F4F0895709561957F4F089500
:1004D000A1E21A2EAA1BBB1BFD010DC0AA1FBB1F48
:1004E000EE1FFF1FA217B307E407F50720F0A21BBA
:1004F000B30BE40BF50B661F771F881F991F1A9427
:1005000069F760957095809590959B01AC01BD0150
:10051000CF010895AA1BBB1B51E107C0AA1FBB1F37
:10052000A617B70710F0A61BB70B881F991F5A957F
:10053000A9F780959095BC01CD010895F894FFCF5F
:10054000060101000000435331323042206973201C
:100550004C6567656E642E2E2E2077616974206667
:0E0560006F722069742044415259212000001E
:00000001FF
