:100000000C948B000C94AA000C94AA000C94AA00E7
:100010000C94AA000C94AA000C94AA000C94AA00B8
:100020000C94AA000C94AA000C94AA000C94AA00A8
:100030000C94AA000C9486020C94AA000C94AA00BA
:100040000C94AA000C94AA000C94AA000C94AA0088
:100050000C94AA000C94AA000C94AA000C94AA0078
:100060000C94AA000C94AA000C94AA000C94AA0068
:100070000C94AA000C94AA000C94AA000C94AA0058
:100080000C94AA000C94AA000C94AA006803F9032B
:10009000F903F903F903F903F903F903F903F90380
:1000A000F903F903F903F903F903F903F903F90370
:1000B000F903F903F903F903F903F903F903F90360
:1000C000F903F903F903F903F903F903F903F90350
:1000D000F903F003F903F903F903F903F903F90349
:1000E000E703F903F903F903F903F903BB036B030E
:1000F00073037C0385038E039703A003A903B20354
:10010000F903F903F903F903F903F903F903C30345
:10011000CC03D503DE0311241FBECFEFD0E4DEBF36
:10012000CDBF11E0A0E0B1E0E2E5F8E000E00BBFF8
:1001300002C007900D92A630B107D9F721E0A6E0E2
:10014000B1E001C01D92AA31B207E1F70E94E602B8
:100150000C9427040C94000040E050E00CC0000018
:100160002F5F3F4F02C020E030E0273063E03607CA
:10017000B4F34F5F5F4F48175907ACF308959BB135
:100180009F7B9BB988B98BB180688BB900008BB11C
:100190008F778BB982E090E00E94AC00089581E0F7
:1001A0000E94BF000895813120F481580E94BF0051
:1001B000089581550E94BF00089584E690E00E9452
:1001C000AC0088E30E94BF0086E00E94BF008FE081
:1001D0000E94BF0081E00E94BF008AE090E00E9480
:1001E000AC0008959BB190649BB988B98BB18068CD
:1001F0008BB900008BB18F778BB981E090E00E94C2
:10020000AC000895EF92FF920F931F93CF93DF936B
:10021000182FEB010E94CF000EC001E0010F812FCB
:100220000E94D3007E018FEFE81AF80A88810E94AD
:10023000F200102FE70188818111EFCFDF91CF917C
:100240001F910F91FF90EF9008950F931F93CF93FD
:10025000DF93B62FA72FF82FE92F022F132FD42FBC
:10026000C52F04C0062F172FD82FC92F6B2F7A2F19
:100270008F2F9E2F202F312F4D2F5C2F0E94FC039C
:10028000B02FA12FFD2FEC2F611571058105910570
:1002900049F7602F712F8D2F9C2FDF91CF911F91E8
:1002A0000F910895442349F021E030E002C0220F6D
:1002B000331F6A95E2F7822B089521E030E002C0F7
:1002C000220F331F6A95E2F720958223089521E0DB
:1002D00030E002C0220F331F6A95E2F782230895AF
:1002E00040E064E08FEF0E94520182B9000080B1CB
:1002F00060E080950E946701811180C080B161E05B
:1003000080950E94670181117BC080B162E0809579
:100310000E946701811176C080B163E080950E94E0
:100320006701811171C040E065E08FEF0E945201CA
:1003300082B9000080B160E080950E946701811160
:1003400065C080B161E080950E946701811160C045
:1003500080B162E080950E94670181115BC080B12D
:1003600063E080950E946701811156C040E066E01D
:100370008FEF0E94520182B9000080B160E0809549
:100380000E94670181114AC080B161E080950E949E
:100390006701811145C080B162E080950E946701CC
:1003A000811140C080B163E080950E946701811196
:1003B0003BC040E067E08FEF0E94520182B900002D
:1003C00080B160E080950E94670181112FC080B1EB
:1003D00061E080950E94670181112AC080B162E0CE
:1003E00080950E946701811125C080B163E08095EE
:1003F0000E9467018823F9F084E4089581E3089559
:1004000084E3089587E308958AE2089582E30895D6
:1004100085E3089588E3089580E3089583E30895CC
:1004200086E3089589E3089583E2089581E40895B9
:1004300082E4089583E40895CF93DF93EC01813043
:10044000910561F08230910581F0892BB1F48091A2
:1004500000018F3191F08F3159F40FC0809100016C
:100460008F3159F48F3149F406C0C0E0D0E005C0A7
:10047000C1E0D0E002C0C2E0D0E0C130D10551F00F
:10048000C230D10581F0209791F40E9470018093D1
:1004900000010DC00E947001809300010E94700154
:1004A0008093070104C08091070180930601CE016B
:1004B000DF91CF9108958BE0809381008DE790E0EC
:1004C000909389008093880082E080936F0010925F
:1004D0008500109284008091010190910201A09109
:1004E0000301B09104018093080190930901A09346
:1004F0000A01B0930B018FB780688FBF08951092E7
:100500008100089581E080930C0108951F920F925D
:100510000FB60F9211240BB60F922F933F934F9368
:100520005F936F937F938F939F93AF93BF93EF935B
:10053000FF938091080190910901A0910A01B09167
:100540000B010197A109B10980930801909309015A
:10055000A0930A01B0930B01892B8A2B8B2B91F46A
:100560000E9482028091010190910201A0910301F9
:10057000B09104018093080190930901A0930A01AE
:10058000B0930B01FF91EF91BF91AF919F918F912C
:100590007F916F915F914F913F912F910F900BBE83
:1005A0000F900FBE0F901F901895609301017093EC
:1005B00002018093030190930401609308017093FA
:1005C000090180930A0190930B010895CF93DF9363
:1005D00000D0CDB7DEB780EF81B98FE082B98FEF61
:1005E00084B915B887B918B88AB91BB8EDE0F1E03D
:1005F000FA83E983808382E390E0A0E0B0E0818326
:100600009283A383B48385839683A783B0878CE189
:1006100092E09287818762E370E080E090E00E9440
:10062000D5020E945B020E94DD000E94CF0081E0A3
:100630000E94D30000E010E03BC0F801EE0FFF1F66
:1006400081E090E08C0F9D1FE80FF91FE080F180A2
:10065000D70115964D915D916D917C9118971196EA
:100660008D919D910D90BC91A02D481759076A0757
:100670007B0781F4D7011996ED91FC911A978C9123
:10068000082E000C990B0995F701808315821682BC
:1006900017821086F70185819681A781B085019622
:1006A000A11DB11D85839683A783B0870F5F1F4F60
:1006B0000115110511F2E09107018E2F90E08534AC
:1006C000910508F096C0FC01EA5BFF4F0C941E04F4
:1006D0008FE185B9AFCF81E085B90E94D30081E376
:1006E0000E94F200A7CF82E085B981E00E94D3008A
:1006F00082E30E94F2009ECF83E085B981E00E94F0
:10070000D30083E30E94F20095CF84E085B981E0B5
:100710000E94D30084E30E94F2008CCF85E085B96B
:1007200081E00E94D30085E30E94F20083CF86E03F
:1007300085B981E00E94D30086E30E94F2007ACF5F
:1007400087E085B981E00E94D30087E30E94F20030
:1007500071CF88E085B981E00E94D30088E30E94D0
:10076000F20068CF89E085B981E00E94D30089E377
:100770000E94F2005FCF15B881E00E94D30080E3B1
:100780000E94F20057CF8AE085B981E00E94D30031
:1007900081E40E94F2004ECF8BE085B981E00E9497
:1007A000D30082E40E94F20045CF8CE085B981E05D
:1007B0000E94D30083E40E94F2003CCF8DE085B913
:1007C00081E00E94D30084E40E94F20033CF8EE0E7
:1007D00085B981E00E94D3008AE20E94F2002ACF0C
:1007E0008FE085B981E00E94D30083E20E94F2008D
:1007F00021CF8BE185B91ECFA1E21A2EAA1BBB1B0C
:10080000FD010DC0AA1FBB1FEE1FFF1FA217B307DC
:10081000E407F50720F0A21BB30BE40BF50B661FF2
:10082000771F881F991F1A9469F7609570958095B6
:1008300090959B01AC01BD01CF010895EE0FFF1F04
:100840000024001C0BBE0790F691E02D0994F8944B
:02085000FFCFD8
:060852001F010000000080
:00000001FF
