:100000000C9446000C9465000C9465000C946500FB
:100010000C9465000C9465000C9465000C946500CC
:100020000C9465000C9465000C9465000C946500BC
:100030000C9465000C9489010C9465000C94650087
:100040000C9465000C9465000C9465000C9465009C
:100050000C9465000C9465000C9465000C9465008C
:100060000C9465000C9465000C9465000C9465007C
:100070000C9465000C9465000C9465000C9465006C
:100080000C9465000C9465000C94650011241FBE4F
:10009000CFEFD0E4DEBFCDBF11E0A0E0B1E0E6E2FB
:1000A000F5E000E00BBF02C007900D92A031B10750
:1000B000D9F721E0A0E1B1E001C01D92A531B2075E
:1000C000E1F70E9462020C9491020C940000442318
:1000D00049F021E030E002C0220F331F6A95E2F7B9
:1000E000822B089521E030E002C0220F331F6A9571
:1000F000E2F720958223089521E030E002C0220F2C
:10010000331F6A95E2F78223089540E064E08FEFA1
:100110000E94670082B9000080B160E080950E9473
:100120007C00811180C080B161E080950E947C00DC
:1001300081117BC080B162E080950E947C008111BA
:1001400076C080B163E080950E947C00811171C00F
:1001500040E065E08FEF0E94670082B9000080B147
:1001600060E080950E947C00811165C080B161E0F3
:1001700080950E947C00811160C080B162E0809512
:100180000E947C0081115BC080B163E080950E9479
:100190007C00811156C040E066E08FEF0E9467004E
:1001A00082B9000080B160E080950E947C008111DE
:1001B0004AC080B161E080950E947C00811145C0F9
:1001C00080B162E080950E947C00811140C080B1C6
:1001D00063E080950E947C0081113BC040E067E0B5
:1001E0008FEF0E94670082B9000080B160E08095C7
:1001F0000E947C0081112FC080B161E080950E9437
:100200007C0081112AC080B162E080950E947C0050
:10021000811125C080B163E080950E947C00882315
:10022000F9F084E4089581E3089584E3089587E371
:1002300008958AE2089582E3089585E3089588E3A6
:10024000089580E3089583E3089586E3089589E39C
:10025000089583E2089581E4089582E4089583E493
:1002600008950F931F93CF93DF93B62FA72FF82FE7
:10027000E92F022F132FD42FC52F04C0062F172FBD
:10028000D82FC92F6B2F7A2F8F2F9E2F202F312FF2
:100290004D2F5C2F0E946F02B02FA12FFD2FEC2F4E
:1002A000611571058105910549F7602F712F8D2F1B
:1002B0009C2FDF91CF911F910F9108958BE0809338
:1002C00081008DE790E0909389008093880082E020
:1002D00080936F001092850010928400809100013D
:1002E00090910101A0910201B0910301809310014E
:1002F00090931101A0931201B09313018FB78068FE
:100300008FBF089510928100089581E080931401B9
:1003100008951F920F920FB60F9211240BB60F92F1
:100320002F933F934F935F936F937F938F939F93FD
:10033000AF93BF93EF93FF938091100190911101C0
:10034000A0911201B09113010197A109B109809305
:10035000100190931101A0931201B0931301892B06
:100360008A2B8B2B91F40E94850180910001909142
:100370000101A0910201B0910301809310019093BB
:100380001101A0931201B0931301FF91EF91BF915E
:10039000AF919F918F917F916F915F914F913F911D
:1003A0002F910F900BBE0F900FBE0F901F901895BE
:1003B0006093000170930101809302019093030107
:1003C00060931001709311018093120190931301B7
:1003D000089540E050E00CC000002F5F3F4F02C086
:1003E00020E030E0273063E03607B4F34F5F5F4F23
:1003F00048175907ACF308959BB19F7B9BB988B907
:100400008BB180688BB900008BB18F778BB982E09C
:1004100090E00E94E901089581E00E94FC010895A6
:10042000813120F481580E94FC01089581550E9479
:10043000FC01089584E690E00E94E90188E30E94AF
:10044000FC0186E00E94FC018FE00E94FC0181E03B
:100450000E94FC018AE090E00E94E90108959BB1AE
:1004600090649BB988B98BB180688BB900008BB15F
:100470008F778BB981E090E00E94E9010895EF92B7
:10048000FF920F931F93CF93DF93182FEB010E94DE
:100490000C020EC001E0010F812F0E9410027E01AC
:1004A0008FEFE81AF80A88810E942F02102FE701C7
:1004B00088818111EFCFDF91CF911F910F91FF9034
:1004C000EF9008958FEF81B912B884B915B80E94E2
:1004D0001A0264E071E081E00E943F02FFCFA1E2D6
:1004E0001A2EAA1BBB1BFD010DC0AA1FBB1FEE1FAE
:1004F000FF1FA217B307E407F50720F0A21BB30BF9
:10050000E40BF50B661F771F881F991F1A9469F774
:1005100060957095809590959B01AC01BD01CF01D0
:060520000895F894FFCFDE
:100526000100000048656C6C6F20576F726C6400A8
:00000001FF
